:020000040000FA
:0400000007EF00F016
:100008003582C2ED08F00FEF09F0A1EF03F01B50A5
:10001800D8A411EF00F013EF00F06CEF00F0010E20
:100028001B6E800E2CEC08F01EC01FF0206A000E1C
:10003800226E0A0E216EDDEC05F01F50300F5FECCA
:1000480008F01EC01FF0206A000E226E0A0E216EF4
:10005800F3EC06F01F50300F5FEC08F03A0E5FEC3F
:1000680008F01DC01FF0206A000E226E0A0E216ED5
:10007800DDEC05F01F50300F5FEC08F01DC01FF0DD
:10008800206A000E226E0A0E216EF3EC06F01F5055
:10009800300F5FEC08F03A0E5FEC08F01CC01FF060
:1000A800206A000E226E0A0E216EDDEC05F01F504C
:1000B800300F5FEC08F01CC01FF0206A000E226EA3
:1000C8000A0E216EF3EC06F01F50300F5FEC08F0BB
:1000D8001804D8A472EF00F074EF00F093EF00F06A
:1000E800000E186E860E2CEC08F01CC01FF0206A5B
:1000F800000E226E0A0E216EDDEC05F01F50300F47
:100108005FEC08F01CC01FF0206A000E226E0A0E79
:10011800216EF3EC06F01F50300F5FEC08F0190465
:10012800D8A499EF00F09BEF00F0BAEF00F0000EB2
:10013800196E830E2CEC08F01DC01FF0206A000E0B
:10014800226E0A0E216EDDEC05F01F50300F5FECB9
:1001580008F01DC01FF0206A000E226E0A0E216EE4
:10016800F3EC06F01F50300F5FEC08F01A04D8A427
:10017800C0EF00F0C2EF00F0C2EF03F0000E1A6EFD
:10018800800E2CEC08F01EC01FF0206A000E226EB4
:100198000A0E216EDDEC05F01F50300F5FEC08F001
:1001A8001EC01FF0206A000E226E0A0E216EF3ECAC
:1001B80006F01F50300F5FEC08F0C2EF03F0180490
:1001C800D8A4E9EF00F0EBEF00F00AEF01F0000E21
:1001D800186E860E2CEC08F01CC01FF0206A000E6A
:1001E800226E0A0E216EDDEC05F01F50300F5FEC19
:1001F80008F01CC01FF0206A000E226E0A0E216E45
:10020800F3EC06F01F50300F5FEC08F01904D8A487
:1002180010EF01F012EF01F031EF01F0000E196E4E
:10022800830E2CEC08F01DC01FF0206A000E226E11
:100238000A0E216EDDEC05F01F50300F5FEC08F060
:100248001DC01FF0206A000E226E0A0E216EF3EC0C
:1002580006F01F50300F5FEC08F01A04D8A437EFEF
:1002680001F039EF01F058EF01F0000E1A6E800E20
:100278002CEC08F01EC01FF0206A000E226E0A0E39
:10028800216EDDEC05F01F50300F5FEC08F01EC04A
:100298001FF0206A000E226E0A0E216EF3EC06F0A3
:1002A8001F50300F5FEC08F0010E0524056E000E9C
:1002B8000620066E800E2CEC08F0C60E05180610F7
:1002C800D8A469EF01F06BEF01F071EF01F05F0E58
:1002D8005FEC08F05F0E5FEC08F08C0E051806E185
:1002E8000604D8A47AEF01F07CEF01F0C2EF03F026
:1002F800000E066E000E056E1EC01FF0206A000E6E
:10030800226E0A0E216EDDEC05F01F50300F5FECF7
:1003180008F01EC01FF0206A000E226E0A0E216E21
:10032800F3EC06F01F50300F5FEC08F0C2EF03F05B
:100338001804D8A4A2EF01F0A4EF01F0C3EF01F074
:10034800000E186E860E2CEC08F01CC01FF0206AF8
:10035800000E226E0A0E216EDDEC05F01F50300FE4
:100368005FEC08F01CC01FF0206A000E226E0A0E17
:10037800216EF3EC06F01F50300F5FEC08F0190403
:10038800D8A4C9EF01F0CBEF01F0EAEF01F0000EBD
:10039800196E830E2CEC08F01DC01FF0206A000EA9
:1003A800226E0A0E216EDDEC05F01F50300F5FEC57
:1003B80008F01DC01FF0206A000E226E0A0E216E82
:1003C800F3EC06F01F50300F5FEC08F01A04D8A4C5
:1003D800F0EF01F0F2EF01F011EF02F0000E1A6EEB
:1003E800800E2CEC08F01EC01FF0206A000E226E52
:1003F8000A0E216EDDEC05F01F50300F5FEC08F09F
:100408001EC01FF0206A000E226E0A0E216EF3EC49
:1004180006F01F50300F5FEC08F0010E0524056E42
:10042800000E0620066E830E2CEC08F0C60E05188A
:100438000610D8A422EF02F024EF02F02AEF02F00F
:100448005F0E5FEC08F05F0E5FEC08F08C0E05188D
:1004580006E10604D8A433EF02F035EF02F0C2EF4C
:1004680003F0000E066E000E056E1DC01FF0206A18
:10047800000E226E0A0E216EDDEC05F01F50300FC3
:100488005FEC08F01DC01FF0206A000E226E0A0EF5
:10049800216EF3EC06F01F50300F5FEC08F0C2EF4E
:1004A80003F01804D8A45BEF02F05DEF02F07CEFD4
:1004B80002F0000E186E860E2CEC08F01CC01FF01F
:1004C800206A000E226E0A0E216EDDEC05F01F5028
:1004D800300F5FEC08F01CC01FF0206A000E226E7F
:1004E8000A0E216EF3EC06F01F50300F5FEC08F097
:1004F8001904D8A482EF02F084EF02F0A3EF02F00F
:10050800000E196E830E2CEC08F01DC01FF0206A37
:10051800000E226E0A0E216EDDEC05F01F50300F22
:100528005FEC08F01DC01FF0206A000E226E0A0E54
:10053800216EF3EC06F01F50300F5FEC08F01A0440
:10054800D8A4A9EF02F0ABEF02F0CAEF02F0000E58
:100558001A6E800E2CEC08F01EC01FF0206A000EE8
:10056800226E0A0E216EDDEC05F01F50300F5FEC95
:1005780008F01EC01FF0206A000E226E0A0E216EBF
:10058800F3EC06F01F50300F5FEC08F0010E052465
:10059800056E000E0620066E860E2CEC08F0C60EC0
:1005A80005180610D8A4DBEF02F0DDEF02F0E3EF48
:1005B80002F05F0E5FEC08F05F0E5FEC08F08C0E47
:1005C800051806E10604D8A4ECEF02F0EEEF02F0FD
:1005D800C2EF03F0000E066E000E056E1CC01FF081
:1005E800206A000E226E0A0E216EDDEC05F01F5007
:1005F800300F5FEC08F01CC01FF0206A000E226E5E
:100608000A0E216EF3EC06F01F50300F5FEC08F075
:10061800C2EF03F01004D8B414EF03F016EF03F0A0
:100628001EEF03F00F50D8A41CEF03F01EEF03F0E9
:100638003DEF03F0000E106E860E2CEC08F013C090
:100648001FF0206A000E226E0A0E216EDDEC05F006
:100658001F50300F5FEC08F013C01FF0206A000E27
:10066800226E0A0E216EF3EC06F01F50300F5FEC7D
:1006780008F01104D8B443EF03F045EF03F04DEF51
:1006880003F00F50D8A44BEF03F04DEF03F06CEFDD
:1006980003F0000E116E830E2CEC08F014C01FF04E
:1006A800206A000E226E0A0E216EDDEC05F01F5046
:1006B800300F5FEC08F014C01FF0206A000E226EA5
:1006C8000A0E216EF3EC06F01F50300F5FEC08F0B5
:1006D8001204D8B472EF03F074EF03F07CEF03F068
:1006E8000F50D8A47AEF03F07CEF03F09DEF03F0EE
:1006F800010E0F6E000E126E800E2CEC08F015C065
:100708001FF0206A000E226E0A0E216EDDEC05F045
:100718001F50300F5FEC08F015C01FF0206A000E64
:10072800226E0A0E216EF3EC06F01F50300F5FECBC
:1007380008F0000E1B6EC2EF03F00D50276E286AFA
:100748002850000AD8B4ABEF03F0C2EF03F02750EB
:10075800000AD8B40BEF00F0010AD8B4E3EF00F0B8
:10076800030AD8B49CEF01F0010AD8B455EF02F09F
:10077800070AD8B40EEF03F0C2EF03F0120081B0FD
:10078800C8EF03F0CAEF03F0DAEF03F01650D8A46D
:10079800D0EF03F0D2EF03F0DAEF03F0010E166E9C
:1007A800010E0324036E000E0420046E81A0DFEF07
:1007B80003F0E1EF03F0E3EF03F0000E166E03A081
:1007C800E8EF03F0EAEF03F03DEF04F0010E012437
:1007D800016E000E0220026E030E01180210D8A44A
:1007E800F8EF03F0FAEF03F041EF04F0000E026EA9
:1007F800000E016E132A010E106E630E136407EFCC
:1008080004F009EF04F010EF04F0000E136E142A40
:10081800010E106E010E116E3B0E146416EF04F0FB
:1008280018EF04F01FEF04F0000E146E152A010EE5
:10083800116E010E126E3B0E156425EF04F027EFC2
:1008480004F041EF04F01450D8A42DEF04F02FEF7A
:1008580004F041EF04F01350D8A435EF04F037EF5B
:1008680004F041EF04F0000E156E010E126E41EF18
:1008780004F0000E026E000E016E12003FEC06F04E
:10088800010E0B240B6E000E0C200C6E8C0E0B1838
:1008980006E10C04D8A453EF04F055EF04F089EFF7
:1008A80004F0000E0C6E000E0B6E4BEC07F089EF97
:1008B80004F009EC00F0000E136E000E146E000E2A
:1008C800156E000E046E000E036E000E026E000E12
:1008D800016E000E0F6EAAEF04F009EC00F077EC41
:1008E80005F0AAEF04F009EC00F011EC05F0AAEF0E
:1008F80004F009EC00F0ABEC04F0AAEF04F0C3EC50
:1009080003F009EC00F0AAEF04F00D50296E2A6AF2
:100918002A50000AD8B493EF04F0AAEF04F0295043
:10092800000AD8B45DEF04F0010AD8B471EF04F0FE
:10093800030AD8B477EF04F0010AD8B47DEF04F0C5
:10094800070AD8B483EF04F0AAEF04F0120081B0CC
:10095800B0EF04F0B2EF04F006EF05F0010E092441
:10096800096E000E0A200A6E1650D8A4BEEF04F0D5
:10097800C0EF04F0D2EF04F0010E166E1C281C6EB6
:100988003B0E1C64CAEF04F0CCEF04F0CEEF04F089
:10099800000E1C6E010E186E09EC00F00ABEDEEFA8
:1009A80004F08D0E095C010E0A58D8A0DEEF04F0A1
:1009B800E0EF04F010EF05F0010E0724076E000EBB
:1009C8000820086E4F0E07180810D8A4EEEF04F0A0
:1009D800F0EF04F010EF05F0000E086E000E076E41
:1009E8001C281C6E3B0E1C64FCEF04F0FEEF04F0A8
:1009F80000EF05F0000E1C6E010E186E09EC00F0F9
:100A080010EF05F0000E166E000E0A6E000E096E4D
:100A1800000E086E000E076E120081B016EF05F08A
:100A280018EF05F06CEF05F0010E0924096E000EB1
:100A38000A200A6E1650D8A424EF05F026EF05F018
:100A480038EF05F0010E166E1D281D6E3B0E1D6455
:100A580030EF05F032EF05F034EF05F0000E1D6EB3
:100A6800010E196E09EC00F00ABE44EF05F08D0E78
:100A7800095C010E0A58D8A044EF05F046EF05F0CE
:100A880076EF05F0010E0724076E000E0820086EA9
:100A98004F0E07180810D8A454EF05F056EF05F0CC
:100AA80076EF05F0000E086E000E076E1D281D6E0D
:100AB8003B0E1D6462EF05F064EF05F066EF05F08C
:100AC800000E1D6E010E196E09EC00F076EF05F0B0
:100AD800000E166E000E0A6E000E096E000E086EED
:100AE800000E076E120081B07CEF05F07EEF05F076
:100AF800D2EF05F0010E0924096E000E0A200A6ED5
:100B08001650D8A48AEF05F08CEF05F09EEF05F09B
:100B1800010E166E1E281E6E170E1E6496EF05F047
:100B280098EF05F09AEF05F0000E1E6E010E1A6E92
:100B380009EC00F00ABEAAEF05F08D0E095C010E63
:100B48000A58D8A0AAEF05F0ACEF05F0DCEF05F0E5
:100B5800010E0724076E000E0820086E4F0E0718B6
:100B68000810D8A4BAEF05F0BCEF05F0DCEF05F0EB
:100B7800000E086E000E076E1E281E6E170E1E64ED
:100B8800C8EF05F0CAEF05F0CCEF05F0000E1E6EB9
:100B9800010E1A6E09EC00F0DCEF05F0000E166E7F
:100BA800000E0A6E000E096E000E086E000E076E2B
:100BB8001200000E246E22BEE6EF05F0E4EF05F009
:100BC800ECEF05F0216C221ED8B0222A010E246E0B
:100BD80020BEF3EF05F0F1EF05F0F9EF05F01F6C1B
:100BE800201ED8B0202A010E241A000E266E000EF0
:100BF800256E21502210D8B404EF06F006EF06F057
:100C08002EEF06F0010E236E0EEF06F0D890213677
:100C18002236232A22AE13EF06F015EF06F00AEF6C
:100C280006F0D8902536263621501F5C22502058D1
:100C3800D8A021EF06F023EF06F028EF06F02150A8
:100C48001F5E2250205A2580D89022322132232E2E
:100C580015EF06F02450D8B434EF06F036EF06F05E
:100C68003AEF06F0256C261ED8B0262A25C01FF0BC
:100C780026C020F012001750D8A445EF06F047EF21
:100C880006F091EF06F080BA4CEF06F04EEF06F052
:100C980091EF06F0010E176E0D50D8A456EF06F02E
:100CA80058EF06F05CEF06F0010E0D6E9AEF06F0B5
:100CB8000D04D8A462EF06F064EF06F06AEF06F0C0
:100CC800020E0D6E9BEC06F09AEF06F0020E0D1860
:100CD800D8A471EF06F073EF06F077EF06F0030E75
:100CE8000D6E66EF06F0030E0D18D8A47EEF06F021
:100CF80080EF06F084EF06F0040E0D6E9AEF06F012
:100D0800040E0D18D8A48BEF06F08DEF06F091EFC6
:100D180006F0000E0D6E9AEF06F080AA96EF06F028
:100D280098EF06F09AEF06F0000E176E1200800E8C
:100D38002CEC08F01EC01FF0206A000E226E0A0E6E
:100D4800216EDDEC05F01F50300F5FEC08F01EC07F
:100D58001FF0206A000E226E0A0E216EF3EC06F0D8
:100D68001F50300F5FEC08F03A0E5FEC08F01DC022
:100D78001FF0206A000E226E0A0E216EDDEC05F0CF
:100D88001F50300F5FEC08F01DC01FF0206A000EE6
:100D9800226E0A0E216EF3EC06F01F50300F5FEC46
:100DA80008F03A0E5FEC08F01CC01FF0206A000E35
:100DB800226E0A0E216EDDEC05F01F50300F5FEC3D
:100DC80008F01CC01FF0206A000E226E0A0E216E69
:100DD800F3EC06F01F50300F5FEC08F01200000E25
:100DE800246E20BEFCEF06F0FAEF06F002EF07F0E3
:100DF8001F6C201ED8B0202A010E246E22BE09EFD7
:100E080007F007EF07F00DEF07F0216C221ED8B0AE
:100E1800222A21502210D8B414EF07F016EF07F059
:100E28003AEF07F0010E236E1EEF07F0D890213637
:100E38002236232A22AE23EF07F025EF07F01AEF18
:100E480007F021501F5C22502058D8A02EEF07F041
:100E580030EF07F034EF07F021501F5E2250205A80
:100E6800D89022322132232E25EF07F02450D8B40F
:100E780040EF07F042EF07F046EF07F01F6C201E27
:100E8800D8B0202A1FC01FF020C020F012001C2A52
:100E9800010E186E3B0E1C6454EF07F056EF07F076
:100EA8005DEF07F0000E1C6E1D2A010E186E010E74
:100EB800196E3B0E1D6463EF07F065EF07F06CEFEA
:100EC80007F0000E1D6E1E2A010E196E010E1A6E15
:100ED800170E1E6472EF07F074EF07F088EF07F043
:100EE8001D50D8A47AEF07F07CEF07F088EF07F0E1
:100EF8001C50D8A482EF07F084EF07F088EF07F0C2
:100F0800000E1E6E010E1A6E12002B6E2BC02DF0F5
:100F1800000E2C6E2BAE93EF07F095EF07F098EFCD
:100F280007F08B8A99EF07F08B9A8BA89EEF07F052
:100F3800A0EF07F0A4EF07F0D8802D36A7EF07F051
:100F48002D502D242D6E8B8600F000F000F000F05F
:100F580000F000F000F000F000F000F000F000F009
:100F68008B96D8902B362C2A070E2C64BEEF07F0F0
:100F7800C0EF07F08EEF07F012001F6E1FC021F0C0
:100F8800000E206E1FAECBEF07F0CDEF07F0D0EFCD
:100F980007F08B8AD1EF07F08B9A8BA8D6EF07F072
:100FA800D8EF07F0DCEF07F0D8802136DFEF07F045
:100FB80021502124216E8B8600F000F000F000F013
:100FC80000F000F000F000F000F000F000F000F099
:100FD8008B96D8901F36202A070E2064F6EF07F06C
:100FE800F8EF07F0C6EF07F01200316E070E306E0B
:100FF8007D0EE82EFED7302EFCD700F0000E2E6EA8
:10100800120EF5EC08F0040E306E3E0EE82EFED7F8
:10101800302EFCD731C02EF0130EF5EC08F0040E7C
:10102800306E3E0EE82EFED7302EFCD7400E2E6EC8
:10103800120EF5EC08F0040E306E3E0EE82EFED7C8
:10104800302EFCD7000E2E6E120EF5EC08F01200B2
:10105800256E070E246E7D0EE82EFED7242EFCD7B3
:1010680000F0000E226E120E02EC09F0040E246E3F
:101078003E0EE82EFED7242EFCD725C022F0130EF4
:1010880002EC09F0040E246E3E0EE82EFED7242E44
:10109800FCD7400E226E120E02EC09F0040E246EEC
:1010A8003E0EE82EFED7242EFCD7000E226E120E1E
:1010B80002EC09F01200256E070E246E7D0EE82E54
:1010C800FED7242EFCD700F0800E226E120E02EC02
:1010D80009F0040E246E3E0EE82EFED7242EFCD70F
:1010E80025C022F0130E02EC09F0040E246E3E0E09
:1010F800E82EFED7242EFCD7C00E226E120E02EC6C
:1011080009F0040E246E3E0EE82EFED7242EFCD7DE
:10111800000E226E120E02EC09F0120036EC09F0F5
:10112800979C8E9C110E326E3A0EE82EFED7322E08
:10113800FCD700D08E8C000EE8EC08F0010EE8EC2D
:1011480008F0000E2E6E120EF5EC08F0210E326E2D
:10115800760EE82EFED7322EFCD700D0320EF9ECF0
:1011680007F03C0EF9EC07F00C0EF9EC07F0010E55
:10117800F9EC07F0060EF9EC07F012000600F2AAE7
:10118800C8EF08F0CAEF08F0D8EF08F0F2A4CFEFE4
:1011980008F0D1EF08F0D8EF08F0F2943450D76E89
:1011A80033C0D6FF42EC04F035921100080ED56E1C
:1011B8009E0ED76E580ED66ED6CF33F0D7CF34F0FA
:1011C800F294F28AD58E12002E6E8994400E89EC24
:1011D80007F02E5089EC07F0000E89EC07F089849F
:1011E80012002F6E8994400E89EC07F02F5089EC7D
:1011F80007F02E5089EC07F089841200236E899439
:10120800400EC1EC07F02350C1EC07F02250C1ECAE
:1012180007F08984120000EE01F01E0EEE6AE8065F
:10122800FDE13590359200011AEF09F024EC09F040
:1012380092EC08F0F28EF28C20EF09F007EF00F044
:101248002DEC09F03FEC09F044EC09F0DAEC08F079
:101258001200000E956E000E8C6E9380928A0F0E0F
:10126800C16E12009294898494888B88949A8B9A80
:1012780094968B961200700ED36E400E9B6E1200E1
:06128800D09EF19412005B
:020000040020DA
:08000000FFFFFFFFFFFFFFFF00
:020000040030CA
:0E000000FF06191EF38381FFFFC0FFE0FF40E3
:00000001FF
